:100000008AC0AEC088C3ACC010C3AAC0A9C0A8C073
:10001000A7C0A6C0A5C0A4C0A3C0A2C0A1C02C5E9A
:100020007460616264346667656E362D3738271EEA
:100030001F202122232425267333762E77785F44D0
:1000400045464748494A4B4C4D4E4F5051525354E8
:1000500055565758595A5B5C5D2F3130636D3504E6
:1000600005060708090A0B0C0D0E0F1011121314C8
:1000700015161718191A1B1C1D6F7170752A0501AA
:100080000906A101050719E029E7150025017501F9
:10009000950881029501750825731900297381005F
:1000A000C0100344006900670069004B00650079D7
:1000B000001C036400690067006900730074007528
:1000C000006D0070002E0063006F006D00040309D6
:1000D000040902220001010080320904000001032A
:1000E000010100092101010001222300070581030C
:1000F00008000A1201100100000008C016DB2700EA
:1001000001010200010038010101010101010204A5
:1001100008102000FE0411241FBECFE5D2E0DEBF90
:10012000CDBF20E0A6EAB0E001C01D92AE3EB2070E
:10013000E1F710E0A0E6B0E0EAE5FAE002C00590E1
:100140000D92A63AB107D9F710E0CBE8D0E003C092
:100150002197FE017AD4CA38D107D1F7FDD37BC4E9
:100160004FCFEEE0F1E09491E8E0F1E0E491EE238E
:1001700091F02AB52F7C2ABDF0E0EB5FFE4FA491F1
:10018000B0E0811109C08FB7F8942C91E92FE09568
:10019000E223EC938FBF08958FB7F894EC91E92B8D
:1001A000F8CFCF92DF92EF92FF920F931F93CF93EE
:1001B000DF936C01EB017B01E40EF51E10E000E023
:1001C000CE15DF0561F06991D601ED91FC910190AA
:1001D000F081E02DC6010995080F191FF1CFC80164
:1001E000DF91CF911F910F91FF90EF90DF90CF9013
:1001F0000895FC018091C60084FF14C09091C7004F
:1002000088E898279093C70080818093C8008181F7
:100210008093C90062E088EC90E066D286E080932B
:10022000C60008958AE58093C600EECFFC010190D8
:100230000020E9F73197AF01481B590BBC0184EB53
:1002400090E0AFCFCF92DF92EF92FF920F931F9388
:10025000CF93DF938091D500835087FD2CC0909180
:10026000D3009D3231F5883021F58091D400ECE047
:10027000F0E0E81BF109E852FF4F83EC8093BB00EC
:100280008AE5809361001092A7008081807609F44E
:1002900094C089EB90E09093A9008093A80080E03F
:1002A0009781911104C09681981708F4892F809343
:1002B00060001092D5008091610084FF3CC0809165
:1002C00060008F3FC1F1C82F893008F0C8E0982F37
:1002D0009C1B909360009091BB0028E8922790931C
:1002E000BB008823E1F04091A8005091A9008091C3
:1002F000A70086FFDFC0ACEBB0E0FA019C2F849131
:100300008D9331969150D9F72FEF2C0F30E02F5F5E
:100310003F4F240F351F3093A9002093A8006C2F66
:100320008CEB90E0E1D1CC5FCC3019F08FEF809373
:100330006000C093610084E196B3987131F48150FC
:10034000D9F71092D6001092D200DD24D3948111F7
:10035000D12C9091AA00D91639F1882319F1F8947B
:1003600008E010E0C0E0D0E8CD2ECC0EC1BEC0D178
:100370007C018CEEE81688E0F8060CF4CC2DD695BE
:100380000150110989F78FEF8C0F81BF0C2F10E0FE
:100390000F5F1F4F81B78017110609F00CF493C04F
:1003A000C1BF7894D092AA00DF91CF911F910F9195
:1003B000FF90EF90DF90CF90089522811092C400BB
:1003C000918191110AC01092C50024EC30E082E0C6
:1003D0003093A9002093A80063CF953029F420938F
:1003E000D60024EC30E0F4CF963009F04CC0938175
:1003F000913059F483EF90E09093A9008093A80086
:1004000082E190E49093A7004BCF923041F481EDCC
:1004100090E09093A9008093A80082E2F2CF9330FD
:10042000F1F4211108C08DEC90E09093A900809325
:10043000A80084E0E6CF213041F481EB90E0909376
:10044000A9008093A8008CE1DCCF2230D1F681EAAC
:1004500090E09093A9008093A80080E1D2CF9132E0
:1004600041F483EE90E09093A9008093A80089E086
:10047000C8CF923231F68EE790E09093A900809336
:10048000A80083E2BECF983071F0993019F4209320
:10049000A600A7CF9A3059F09B3009F0A2CF9BE479
:1004A0009093C7009ECF26EA30E081E091CF24EC04
:1004B00030E0FBCFDA01ECEBF0E09C2F8D918193E3
:1004C0009150E1F721CF14D18C5E984097FF03C083
:1004D0009195819591098E159F0514F4C1B77C0102
:1004E00081B78F5F81BF56CF8F929F92AF92BF929D
:1004F000CF92DF92EF92FF926B017C012FB7F894BD
:100500008091B0009091B100A091B200B091B30081
:100510002FBF2FB7F8948090B0009090B100A090BA
:10052000B200B090B3002FBFC818D908EA08FB0882
:10053000C80ED91EEA1EFB1E85DED501C4011C149F
:100540001D041E041F042CF3FF90EF90DF90CF904A
:10055000BF90AF909F908F9008950F931F93CF936C
:10056000DF93EC01162F042F8091C60084FD08C094
:1005700069DE8FE19EE40197F1F700C00000F4CF3F
:100580000D831E83CE010596DF91CF911F910F91B0
:1005900030CEFF920F931F93CF93DF936830C9F053
:1005A0006930A9F16A30A9F16D3099F1603248F0F3
:1005B000262F2052330BF901E25EFF4FC491C11187
:1005C00009C081E090E0DF91CF911F910F91FF90E2
:1005D0000895CAE2FC01F480D2E0C6FFD0E0C7FD76
:1005E000D064CF73CF3309F4C4E68C01FF2011F03F
:1005F00081E0B7DD4D2F6C2FC801AFDF40E060E038
:10060000C801ABDFFF20E9F280E0ABDDDACFCBE25F
:10061000E1CFC8E2DFCF40E0682F84EB90E09DDFC0
:1006200040E060E084EB90E098CF1F920F920FB60D
:100630000F9211242F933F938F939F93AF93BF9368
:100640008091B0009091B100A091B200B091B30040
:100650003091AF0023E0230F2D3768F126E8230FF8
:100660000296A11DB11D2093AF008093B00090931E
:10067000B100A093B200B093B3008091AB00909111
:10068000AC00A091AD00B091AE000196A11DB11DCE
:100690008093AB009093AC00A093AD00B093AE00FC
:1006A000BF91AF919F918F913F912F910F900FBE6E
:1006B0000F901F9018950196A11DB11DD4CFA82FA2
:1006C000B92F80E090E041E050EA609530E009C049
:1006D0002D9182279795879510F084279527305E76
:1006E000C8F36F5FA8F30895EADF8D939D93089593
:1006F000A6E088279927AA9569F00197E1F3B399B5
:10070000FCCFB39BFECF81E09927A6B3019611F0F1
:10071000A871D9F70895CF93CFB7CF93DF93C3953F
:10072000B39BE9F7B39B0BC0B39B09C0B39B07C056
:10073000B39B05C0B39B03C0B39B01C08BC06F9339
:10074000C091D400DD27C852DF4F2F9365E5B39BDE
:1007500003C02F916F91E6CF0F931F934F9320E02B
:1007600040E15F9306B3087103FB27F93F9350E024
:100770003BE039C0187140642F77012F5F5F1EC0C6
:10078000406816B318712F7752501FC0406406B3EB
:100790002F770871D1F15F5F00C023C0406216B3AC
:1007A0002F77187191F15F5F00C025C00871102785
:1007B000515012F45D5F0000115027952C3F16B385
:1007C000C8F618710127015027952C3FC8F642271B
:1007D000499306B3087110274F73115027952C3F8A
:1007E000A8F64695469516B3187179F00127015081
:1007F00027952C3F98F66B5A60F3315006B3B0F64C
:1008000000C010E21ABF002719C03B503195C31B2E
:10081000D04010E21ABF0881033C09F10B34F9F013
:100820002091D2001981110F1213EDCF4A81441F7C
:10083000093651F10D3211F0013E29F70093D7002E
:100840003F915F914F911F910F912F916F91CAB777
:10085000C5FD65CFDF91CF91CFBFCF911895209186
:10086000D700222369F31091D500112391F534307C
:1008700092F13093D5002093D3001091D4003BE047
:10088000311B3093D40027C00091D50001300CF506
:100890000AE54F7049F43091610034FD1DC00093AA
:1008A0006100CBEBD0E01CC03091C60034FD14C019
:1008B0000093C600C7ECD0E013C0052710E000C0CD
:1008C000000008BB1AC0052710E0221F1DC010E061
:1008D00021C04AE502C032ED432FC4E1D0E032E04E
:1008E00017B31861C39A08B317BB58E120E865E352
:1008F00020FF052708BB279517951C3FF0F6669546
:10090000B8F7B1F720FF052708BB279517951C3FBF
:10091000D0F62795179517FF052700001C3F08BB49
:10092000B0F629913A9519F7077E1091D600110F6C
:10093000C651D04008BB11F01093D20010E21ABF8C
:10094000086017B3177E402F477E54E05A95F1F7A1
:1009500008BB17BB48BB74CF81E2E1E0F0E08093B5
:100960005700849181BF789480B7806880BF80B73A
:10097000806480BF8CB580648CBD8FEF8DBD80B7E7
:10098000807F876080BF89B7846089BF83B7887F95
:1009900083BF8AB58C7F81608ABD83B7877F83BF21
:1009A00083B7887F836083BF86B1876086B9379AB3
:1009B00080E031DE64EF71E080E090E095DD45E0BD
:1009C00067E184EB90E0C9DD40E060E084EB90E01B
:1009D000C4DD68EE73E080E090E086DD8AE690E0BA
:1009E00025DC88E218DE64EF71E080E090E07CDDD9
:1009F00080EA90E01BDC88E20EDEFFCFE4EBF0E063
:100A00001382128286E690E0918380831482F894A8
:100A1000BB9A2FEF84E39CE0215080409040E1F7A7
:100A200000C00000BB98AC9A8BB780628BBFE6EC2D
:100A3000F0E08BE481838AE5808378941092BA0099
:100A40001092B90089EB90E0D4CBEE0FFF1F059018
:0A0A5000F491E02D0994F894FFCF13
:100A5A00FF5A00000000C902D1006563686F2027B1
:100A6A00504F432D41545441434B3A2027202428C8
:100A7A00686F73746E616D6529203E202F746D70E6
:100A8A002F76756C6E5F70726F6F662E7478740055
:060A9A006578697400009C
:00000001FF
